{
  "_format": "hh-sol-artifact-1",
  "contractName": "Account",
  "sourceName": "contracts/Account.sol",
  "abi": [
    {
      "inputs": [],
      "name": "getHash",
      "outputs": [
        {
          "internalType": "string",
          "name": "",
          "type": "string"
        }
      ],
      "stateMutability": "view",
      "type": "function"
    },
    {
      "inputs": [
        {
          "internalType": "string",
          "name": "_ipfsHash",
          "type": "string"
        }
      ],
      "name": "setHash",
      "outputs": [],
      "stateMutability": "nonpayable",
      "type": "function"
    }
  ],
  "bytecode": "0x608060405234801561001057600080fd5b506106f4806100206000396000f3fe608060405234801561001057600080fd5b50600436106100365760003560e01c80631ed83fd41461003b578063d13319c414610057575b600080fd5b610055600480360381019061005091906102ec565b610075565b005b61005f6100c4565b60405161006c91906103b4565b60405180910390f35b806000803373ffffffffffffffffffffffffffffffffffffffff1673ffffffffffffffffffffffffffffffffffffffff16815260200190815260200160002090816100c091906105ec565b5050565b60606000803373ffffffffffffffffffffffffffffffffffffffff1673ffffffffffffffffffffffffffffffffffffffff168152602001908152602001600020805461010f90610405565b80601f016020809104026020016040519081016040528092919081815260200182805461013b90610405565b80156101885780601f1061015d57610100808354040283529160200191610188565b820191906000526020600020905b81548152906001019060200180831161016b57829003601f168201915b5050505050905090565b6000604051905090565b600080fd5b600080fd5b600080fd5b600080fd5b6000601f19601f8301169050919050565b7f4e487b7100000000000000000000000000000000000000000000000000000000600052604160045260246000fd5b6101f9826101b0565b810181811067ffffffffffffffff82111715610218576102176101c1565b5b80604052505050565b600061022b610192565b905061023782826101f0565b919050565b600067ffffffffffffffff821115610257576102566101c1565b5b610260826101b0565b9050602081019050919050565b82818337600083830152505050565b600061028f61028a8461023c565b610221565b9050828152602081018484840111156102ab576102aa6101ab565b5b6102b684828561026d565b509392505050565b600082601f8301126102d3576102d26101a6565b5b81356102e384826020860161027c565b91505092915050565b6000602082840312156103025761030161019c565b5b600082013567ffffffffffffffff8111156103205761031f6101a1565b5b61032c848285016102be565b91505092915050565b600081519050919050565b600082825260208201905092915050565b60005b8381101561036f578082015181840152602081019050610354565b60008484015250505050565b600061038682610335565b6103908185610340565b93506103a0818560208601610351565b6103a9816101b0565b840191505092915050565b600060208201905081810360008301526103ce818461037b565b905092915050565b7f4e487b7100000000000000000000000000000000000000000000000000000000600052602260045260246000fd5b6000600282049050600182168061041d57607f821691505b6020821081036104305761042f6103d6565b5b50919050565b60008190508160005260206000209050919050565b60006020601f8301049050919050565b600082821b905092915050565b6000600883026104987fffffffffffffffffffffffffffffffffffffffffffffffffffffffffffffffff8261045b565b6104a2868361045b565b95508019841693508086168417925050509392505050565b6000819050919050565b6000819050919050565b60006104e96104e46104df846104ba565b6104c4565b6104ba565b9050919050565b6000819050919050565b610503836104ce565b61051761050f826104f0565b848454610468565b825550505050565b600090565b61052c61051f565b6105378184846104fa565b505050565b5b8181101561055b57610550600082610524565b60018101905061053d565b5050565b601f8211156105a05761057181610436565b61057a8461044b565b81016020851015610589578190505b61059d6105958561044b565b83018261053c565b50505b505050565b600082821c905092915050565b60006105c3600019846008026105a5565b1980831691505092915050565b60006105dc83836105b2565b9150826002028217905092915050565b6105f582610335565b67ffffffffffffffff81111561060e5761060d6101c1565b5b6106188254610405565b61062382828561055f565b600060209050601f8311600181146106565760008415610644578287015190505b61064e85826105d0565b8655506106b6565b601f19841661066486610436565b60005b8281101561068c57848901518255600182019150602085019450602081019050610667565b868310156106a957848901516106a5601f8916826105b2565b8355505b6001600288020188555050505b50505050505056fea2646970667358221220cf137f49a8d55c1ed64d04d52d1a4a98b8de56c447790802c9e9ac5da73607b164736f6c63430008110033",
  "linkReferences": {},
  "deployedLinkReferences": {}
}