{
  "_format": "hh-sol-artifact-1",
  "contractName": "SplitExpenses",
  "sourceName": "contracts/SplitExpenses.sol",
  "abi": [
    {
      "inputs": [
        {
          "internalType": "address",
          "name": "_tokenAddress",
          "type": "address"
        },
        {
          "internalType": "address",
          "name": "_deployer",
          "type": "address"
        }
      ],
      "stateMutability": "nonpayable",
      "type": "constructor"
    },
    {
      "anonymous": false,
      "inputs": [
        {
          "indexed": false,
          "internalType": "address",
          "name": "sender",
          "type": "address"
        },
        {
          "indexed": false,
          "internalType": "uint256",
          "name": "amount",
          "type": "uint256"
        }
      ],
      "name": "DepositReceived",
      "type": "event"
    },
    {
      "anonymous": false,
      "inputs": [
        {
          "indexed": false,
          "internalType": "address",
          "name": "initiator",
          "type": "address"
        },
        {
          "indexed": false,
          "internalType": "uint256",
          "name": "totalAmount",
          "type": "uint256"
        }
      ],
      "name": "SplitCompleted",
      "type": "event"
    },
    {
      "anonymous": false,
      "inputs": [
        {
          "indexed": false,
          "internalType": "address",
          "name": "initiator",
          "type": "address"
        },
        {
          "indexed": false,
          "internalType": "uint256",
          "name": "total",
          "type": "uint256"
        }
      ],
      "name": "SplitInitiated",
      "type": "event"
    },
    {
      "inputs": [
        {
          "internalType": "string",
          "name": "_name",
          "type": "string"
        }
      ],
      "name": "contribute",
      "outputs": [],
      "stateMutability": "nonpayable",
      "type": "function"
    },
    {
      "inputs": [],
      "name": "deployer",
      "outputs": [
        {
          "internalType": "address",
          "name": "",
          "type": "address"
        }
      ],
      "stateMutability": "view",
      "type": "function"
    },
    {
      "inputs": [
        {
          "internalType": "string",
          "name": "_name",
          "type": "string"
        }
      ],
      "name": "getMembers",
      "outputs": [
        {
          "internalType": "address[]",
          "name": "",
          "type": "address[]"
        }
      ],
      "stateMutability": "view",
      "type": "function"
    },
    {
      "inputs": [
        {
          "internalType": "string",
          "name": "_name",
          "type": "string"
        }
      ],
      "name": "getTotal",
      "outputs": [
        {
          "internalType": "uint256",
          "name": "",
          "type": "uint256"
        }
      ],
      "stateMutability": "view",
      "type": "function"
    },
    {
      "inputs": [
        {
          "internalType": "address",
          "name": "_account",
          "type": "address"
        }
      ],
      "name": "getUserGroups",
      "outputs": [
        {
          "internalType": "string[]",
          "name": "",
          "type": "string[]"
        }
      ],
      "stateMutability": "view",
      "type": "function"
    },
    {
      "inputs": [
        {
          "internalType": "string",
          "name": "",
          "type": "string"
        }
      ],
      "name": "groups",
      "outputs": [
        {
          "internalType": "string",
          "name": "id",
          "type": "string"
        },
        {
          "internalType": "uint256",
          "name": "totalAmount",
          "type": "uint256"
        }
      ],
      "stateMutability": "view",
      "type": "function"
    },
    {
      "inputs": [
        {
          "internalType": "string",
          "name": "_name",
          "type": "string"
        },
        {
          "internalType": "uint256",
          "name": "_totalAmount",
          "type": "uint256"
        },
        {
          "internalType": "address payable[]",
          "name": "_members",
          "type": "address[]"
        },
        {
          "internalType": "uint256[]",
          "name": "_amounts",
          "type": "uint256[]"
        }
      ],
      "name": "initiateSplit",
      "outputs": [],
      "stateMutability": "nonpayable",
      "type": "function"
    },
    {
      "inputs": [],
      "name": "token",
      "outputs": [
        {
          "internalType": "contract ERC20",
          "name": "",
          "type": "address"
        }
      ],
      "stateMutability": "view",
      "type": "function"
    },
    {
      "inputs": [
        {
          "internalType": "string",
          "name": "_name",
          "type": "string"
        }
      ],
      "name": "transferTotal",
      "outputs": [],
      "stateMutability": "nonpayable",
      "type": "function"
    },
    {
      "inputs": [
        {
          "internalType": "address",
          "name": "",
          "type": "address"
        },
        {
          "internalType": "uint256",
          "name": "",
          "type": "uint256"
        }
      ],
      "name": "userGroups",
      "outputs": [
        {
          "internalType": "string",
          "name": "",
          "type": "string"
        }
      ],
      "stateMutability": "view",
      "type": "function"
    },
    {
      "stateMutability": "payable",
      "type": "receive"
    }
  ],
  "bytecode": "0x60806040523480156200001157600080fd5b506040516200241f3803806200241f833981810160405281019062000037919062000133565b600160008190555080600160006101000a81548173ffffffffffffffffffffffffffffffffffffffff021916908373ffffffffffffffffffffffffffffffffffffffff16021790555081600560006101000a81548173ffffffffffffffffffffffffffffffffffffffff021916908373ffffffffffffffffffffffffffffffffffffffff16021790555050506200017a565b600080fd5b600073ffffffffffffffffffffffffffffffffffffffff82169050919050565b6000620000fb82620000ce565b9050919050565b6200010d81620000ee565b81146200011957600080fd5b50565b6000815190506200012d8162000102565b92915050565b600080604083850312156200014d576200014c620000c9565b5b60006200015d858286016200011c565b925050602062000170858286016200011c565b9150509250929050565b612295806200018a6000396000f3fe6080604052600436106100955760003560e01c806378f120b11161005957806378f120b1146101bf578063d5f39488146101fc578063e7a8138c14610227578063fc0c546a14610250578063feb7ea7b1461027b5761009c565b80633da04e4a146100a157806356250571146100de5780635c43217b1461011b57806360a9e097146101445780636b52230b146101815761009c565b3661009c57005b600080fd5b3480156100ad57600080fd5b506100c860048036038101906100c3919061113a565b6102a4565b6040516100d591906112b9565b60405180910390f35b3480156100ea57600080fd5b5061010560048036038101906101009190611410565b6103bc565b6040516101129190611517565b60405180910390f35b34801561012757600080fd5b50610142600480360381019061013d9190611410565b61046b565b005b34801561015057600080fd5b5061016b6004803603810190610166919061156f565b610694565b60405161017891906115f9565b60405180910390f35b34801561018d57600080fd5b506101a860048036038101906101a39190611410565b61074d565b6040516101b692919061162a565b60405180910390f35b3480156101cb57600080fd5b506101e660048036038101906101e19190611410565b61080f565b6040516101f3919061165a565b60405180910390f35b34801561020857600080fd5b5061021161083a565b60405161021e9190611684565b60405180910390f35b34801561023357600080fd5b5061024e60048036038101906102499190611410565b610860565b005b34801561025c57600080fd5b50610265610aed565b60405161027291906116fe565b60405180910390f35b34801561028757600080fd5b506102a2600480360381019061029d91906118e2565b610b13565b005b6060600360008373ffffffffffffffffffffffffffffffffffffffff1673ffffffffffffffffffffffffffffffffffffffff168152602001908152602001600020805480602002602001604051908101604052809291908181526020016000905b828210156103b1578382906000526020600020018054610324906119cc565b80601f0160208091040260200160405190810160405280929190818152602001828054610350906119cc565b801561039d5780601f106103725761010080835404028352916020019161039d565b820191906000526020600020905b81548152906001019060200180831161038057829003601f168201915b505050505081526020019060010190610305565b505050509050919050565b60606002826040516103ce9190611a39565b908152602001604051809103902060010180548060200260200160405190810160405280929190818152602001828054801561045f57602002820191906000526020600020905b8160009054906101000a900473ffffffffffffffffffffffffffffffffffffffff1673ffffffffffffffffffffffffffffffffffffffff1681526020019060010190808311610415575b50505050509050919050565b600060048260405161047d9190611a39565b908152602001604051809103902054905060006002836040516104a09190611a39565b908152602001604051809103902060030160003373ffffffffffffffffffffffffffffffffffffffff1673ffffffffffffffffffffffffffffffffffffffff168152602001908152602001600020549050600560009054906101000a900473ffffffffffffffffffffffffffffffffffffffff1673ffffffffffffffffffffffffffffffffffffffff166323b872dd600160009054906101000a900473ffffffffffffffffffffffffffffffffffffffff1630846040518463ffffffff1660e01b815260040161057293929190611a50565b6020604051808303816000875af1158015610591573d6000803e3d6000fd5b505050506040513d601f19601f820116820180604052508101906105b59190611abf565b50806004846040516105c79190611a39565b908152602001604051809103902060008282546105e49190611b1b565b9250508190555081816105f79190611b1b565b6004846040516106079190611a39565b90815260200160405180910390205414610656576040517f08c379a000000000000000000000000000000000000000000000000000000000815260040161064d90611bc1565b60405180910390fd5b7f9936746a4565f9766fa768f88f56a7487c78780ac179562773d1c75c5269537e3382604051610687929190611be1565b60405180910390a1505050565b600360205281600052604060002081815481106106b057600080fd5b906000526020600020016000915091505080546106cc906119cc565b80601f01602080910402602001604051908101604052809291908181526020018280546106f8906119cc565b80156107455780601f1061071a57610100808354040283529160200191610745565b820191906000526020600020905b81548152906001019060200180831161072857829003601f168201915b505050505081565b600281805160208101820180518482526020830160208501208183528095505050505050600091509050806000018054610786906119cc565b80601f01602080910402602001604051908101604052809291908181526020018280546107b2906119cc565b80156107ff5780601f106107d4576101008083540402835291602001916107ff565b820191906000526020600020905b8154815290600101906020018083116107e257829003601f168201915b5050505050908060020154905082565b60006002826040516108219190611a39565b9081526020016040518091039020600201549050919050565b600160009054906101000a900473ffffffffffffffffffffffffffffffffffffffff1681565b6002816040516108709190611a39565b9081526020016040518091039020600201546004826040516108929190611a39565b908152602001604051809103902054146108e1576040517f08c379a00000000000000000000000000000000000000000000000000000000081526004016108d890611c7c565b60405180910390fd5b6002816040516108f19190611a39565b908152602001604051809103902060010160008154811061091557610914611c9c565b5b9060005260206000200160009054906101000a900473ffffffffffffffffffffffffffffffffffffffff1673ffffffffffffffffffffffffffffffffffffffff163373ffffffffffffffffffffffffffffffffffffffff16146109ad576040517f08c379a00000000000000000000000000000000000000000000000000000000081526004016109a490611d17565b60405180910390fd5b600560009054906101000a900473ffffffffffffffffffffffffffffffffffffffff1673ffffffffffffffffffffffffffffffffffffffff1663a9059cbb336004846040516109fc9190611a39565b9081526020016040518091039020546040518363ffffffff1660e01b8152600401610a28929190611be1565b6020604051808303816000875af1158015610a47573d6000803e3d6000fd5b505050506040513d601f19601f82011682018060405250810190610a6b9190611abf565b506000600482604051610a7e9190611a39565b9081526020016040518091039020819055507f8631fa81f03d719a138fc5f15fc944030b2da7ce394bd56816f47950c347aa7133600283604051610ac29190611a39565b908152602001604051809103902060020154604051610ae2929190611be1565b60405180910390a150565b600560009054906101000a900473ffffffffffffffffffffffffffffffffffffffff1681565b600081600081518110610b2957610b28611c9c565b5b60200260200101511015610b72576040517f08c379a0000000000000000000000000000000000000000000000000000000008152600401610b6990611da9565b60405180910390fd5b600080600090505b8251811015610c1c57828181518110610b9657610b95611c9c565b5b602002602001015182610ba99190611b1b565b91506000838281518110610bc057610bbf611c9c565b5b60200260200101511015610c09576040517f08c379a0000000000000000000000000000000000000000000000000000000008152600401610c0090611e3b565b60405180910390fd5b8080610c1490611e5b565b915050610b7a565b50838114610c5f576040517f08c379a0000000000000000000000000000000000000000000000000000000008152600401610c5690611f15565b60405180910390fd5b84600286604051610c709190611a39565b90815260200160405180910390206000019081610c8d91906120d7565b5082600286604051610c9f9190611a39565b90815260200160405180910390206001019080519060200190610cc3929190611021565b5083600286604051610cd59190611a39565b90815260200160405180910390206002018190555060005b8251811015610e2c57828181518110610d0957610d08611c9c565b5b6020026020010151600287604051610d219190611a39565b90815260200160405180910390206003016000868481518110610d4757610d46611c9c565b5b602002602001015173ffffffffffffffffffffffffffffffffffffffff1673ffffffffffffffffffffffffffffffffffffffff1681526020019081526020016000208190555060036000858381518110610da457610da3611c9c565b5b602002602001015173ffffffffffffffffffffffffffffffffffffffff1673ffffffffffffffffffffffffffffffffffffffff16815260200190815260200160002086908060018154018082558091505060019003906000526020600020016000909190919091509081610e1891906120d7565b508080610e2490611e5b565b915050610ced565b50600560009054906101000a900473ffffffffffffffffffffffffffffffffffffffff1673ffffffffffffffffffffffffffffffffffffffff166323b872dd600160009054906101000a900473ffffffffffffffffffffffffffffffffffffffff163085600081518110610ea357610ea2611c9c565b5b60200260200101516040518463ffffffff1660e01b8152600401610ec993929190611a50565b6020604051808303816000875af1158015610ee8573d6000803e3d6000fd5b505050506040513d601f19601f82011682018060405250810190610f0c9190611abf565b5081600081518110610f2157610f20611c9c565b5b6020026020010151600486604051610f399190611a39565b90815260200160405180910390208190555081600081518110610f5f57610f5e611c9c565b5b6020026020010151600486604051610f779190611a39565b90815260200160405180910390205414610fc6576040517f08c379a0000000000000000000000000000000000000000000000000000000008152600401610fbd906121f5565b60405180910390fd5b7fb53b02d72051b8c919bb9d2a3dc55ddace5785b3e6ac9c656452aaea87749c7783600081518110610ffb57610ffa611c9c565b5b602002602001015185604051611012929190612236565b60405180910390a15050505050565b82805482825590600052602060002090810192821561109a579160200282015b828111156110995782518260006101000a81548173ffffffffffffffffffffffffffffffffffffffff021916908373ffffffffffffffffffffffffffffffffffffffff16021790555091602001919060010190611041565b5b5090506110a791906110ab565b5090565b5b808211156110c45760008160009055506001016110ac565b5090565b6000604051905090565b600080fd5b600080fd5b600073ffffffffffffffffffffffffffffffffffffffff82169050919050565b6000611107826110dc565b9050919050565b611117816110fc565b811461112257600080fd5b50565b6000813590506111348161110e565b92915050565b6000602082840312156111505761114f6110d2565b5b600061115e84828501611125565b91505092915050565b600081519050919050565b600082825260208201905092915050565b6000819050602082019050919050565b600081519050919050565b600082825260208201905092915050565b60005b838110156111cd5780820151818401526020810190506111b2565b60008484015250505050565b6000601f19601f8301169050919050565b60006111f582611193565b6111ff818561119e565b935061120f8185602086016111af565b611218816111d9565b840191505092915050565b600061122f83836111ea565b905092915050565b6000602082019050919050565b600061124f82611167565b6112598185611172565b93508360208202850161126b85611183565b8060005b858110156112a757848403895281516112888582611223565b945061129383611237565b925060208a0199505060018101905061126f565b50829750879550505050505092915050565b600060208201905081810360008301526112d38184611244565b905092915050565b600080fd5b600080fd5b7f4e487b7100000000000000000000000000000000000000000000000000000000600052604160045260246000fd5b61131d826111d9565b810181811067ffffffffffffffff8211171561133c5761133b6112e5565b5b80604052505050565b600061134f6110c8565b905061135b8282611314565b919050565b600067ffffffffffffffff82111561137b5761137a6112e5565b5b611384826111d9565b9050602081019050919050565b82818337600083830152505050565b60006113b36113ae84611360565b611345565b9050828152602081018484840111156113cf576113ce6112e0565b5b6113da848285611391565b509392505050565b600082601f8301126113f7576113f66112db565b5b81356114078482602086016113a0565b91505092915050565b600060208284031215611426576114256110d2565b5b600082013567ffffffffffffffff811115611444576114436110d7565b5b611450848285016113e2565b91505092915050565b600081519050919050565b600082825260208201905092915050565b6000819050602082019050919050565b61148e816110fc565b82525050565b60006114a08383611485565b60208301905092915050565b6000602082019050919050565b60006114c482611459565b6114ce8185611464565b93506114d983611475565b8060005b8381101561150a5781516114f18882611494565b97506114fc836114ac565b9250506001810190506114dd565b5085935050505092915050565b6000602082019050818103600083015261153181846114b9565b905092915050565b6000819050919050565b61154c81611539565b811461155757600080fd5b50565b60008135905061156981611543565b92915050565b60008060408385031215611586576115856110d2565b5b600061159485828601611125565b92505060206115a58582860161155a565b9150509250929050565b600082825260208201905092915050565b60006115cb82611193565b6115d581856115af565b93506115e58185602086016111af565b6115ee816111d9565b840191505092915050565b6000602082019050818103600083015261161381846115c0565b905092915050565b61162481611539565b82525050565b6000604082019050818103600083015261164481856115c0565b9050611653602083018461161b565b9392505050565b600060208201905061166f600083018461161b565b92915050565b61167e816110fc565b82525050565b60006020820190506116996000830184611675565b92915050565b6000819050919050565b60006116c46116bf6116ba846110dc565b61169f565b6110dc565b9050919050565b60006116d6826116a9565b9050919050565b60006116e8826116cb565b9050919050565b6116f8816116dd565b82525050565b600060208201905061171360008301846116ef565b92915050565b600067ffffffffffffffff821115611734576117336112e5565b5b602082029050602081019050919050565b600080fd5b6000611755826110dc565b9050919050565b6117658161174a565b811461177057600080fd5b50565b6000813590506117828161175c565b92915050565b600061179b61179684611719565b611345565b905080838252602082019050602084028301858111156117be576117bd611745565b5b835b818110156117e757806117d38882611773565b8452602084019350506020810190506117c0565b5050509392505050565b600082601f830112611806576118056112db565b5b8135611816848260208601611788565b91505092915050565b600067ffffffffffffffff82111561183a576118396112e5565b5b602082029050602081019050919050565b600061185e6118598461181f565b611345565b9050808382526020820190506020840283018581111561188157611880611745565b5b835b818110156118aa5780611896888261155a565b845260208401935050602081019050611883565b5050509392505050565b600082601f8301126118c9576118c86112db565b5b81356118d984826020860161184b565b91505092915050565b600080600080608085870312156118fc576118fb6110d2565b5b600085013567ffffffffffffffff81111561191a576119196110d7565b5b611926878288016113e2565b94505060206119378782880161155a565b935050604085013567ffffffffffffffff811115611958576119576110d7565b5b611964878288016117f1565b925050606085013567ffffffffffffffff811115611985576119846110d7565b5b611991878288016118b4565b91505092959194509250565b7f4e487b7100000000000000000000000000000000000000000000000000000000600052602260045260246000fd5b600060028204905060018216806119e457607f821691505b6020821081036119f7576119f661199d565b5b50919050565b600081905092915050565b6000611a1382611193565b611a1d81856119fd565b9350611a2d8185602086016111af565b80840191505092915050565b6000611a458284611a08565b915081905092915050565b6000606082019050611a656000830186611675565b611a726020830185611675565b611a7f604083018461161b565b949350505050565b60008115159050919050565b611a9c81611a87565b8114611aa757600080fd5b50565b600081519050611ab981611a93565b92915050565b600060208284031215611ad557611ad46110d2565b5b6000611ae384828501611aaa565b91505092915050565b7f4e487b7100000000000000000000000000000000000000000000000000000000600052601160045260246000fd5b6000611b2682611539565b9150611b3183611539565b9250828201905080821115611b4957611b48611aec565b5b92915050565b7f46756e6473206e6f742072656365697665642066726f6d206465706f7369746f60008201527f7200000000000000000000000000000000000000000000000000000000000000602082015250565b6000611bab6021836115af565b9150611bb682611b4f565b604082019050919050565b60006020820190508181036000830152611bda81611b9e565b9050919050565b6000604082019050611bf66000830185611675565b611c03602083018461161b565b9392505050565b7f46756e647320617265206e6f7420726561647920746f20626520636f6c6c656360008201527f7465642079657400000000000000000000000000000000000000000000000000602082015250565b6000611c666027836115af565b9150611c7182611c0a565b604082019050919050565b60006020820190508181036000830152611c9581611c59565b9050919050565b7f4e487b7100000000000000000000000000000000000000000000000000000000600052603260045260246000fd5b7f43616c6c6572206973206e6f742073706c697420696e69746961746f72000000600082015250565b6000611d01601d836115af565b9150611d0c82611ccb565b602082019050919050565b60006020820190508181036000830152611d3081611cf4565b9050919050565b7f496e69746961746f7220616d6f756e74206d757374206265206e6f6e2d6e656760008201527f6174697665000000000000000000000000000000000000000000000000000000602082015250565b6000611d936025836115af565b9150611d9e82611d37565b604082019050919050565b60006020820190508181036000830152611dc281611d86565b9050919050565b7f4465706f7369746f7220616d6f756e74206d757374206265206e6f6e2d6e656760008201527f6174697665000000000000000000000000000000000000000000000000000000602082015250565b6000611e256025836115af565b9150611e3082611dc9565b604082019050919050565b60006020820190508181036000830152611e5481611e18565b9050919050565b6000611e6682611539565b91507fffffffffffffffffffffffffffffffffffffffffffffffffffffffffffffffff8203611e9857611e97611aec565b5b600182019050919050565b7f53706c697420646f6573206e6f7420657175616c20746f74616c20616d6f756e60008201527f74206f7765642e00000000000000000000000000000000000000000000000000602082015250565b6000611eff6027836115af565b9150611f0a82611ea3565b604082019050919050565b60006020820190508181036000830152611f2e81611ef2565b9050919050565b60008190508160005260206000209050919050565b60006020601f8301049050919050565b600082821b905092915050565b600060088302611f977fffffffffffffffffffffffffffffffffffffffffffffffffffffffffffffffff82611f5a565b611fa18683611f5a565b95508019841693508086168417925050509392505050565b6000611fd4611fcf611fca84611539565b61169f565b611539565b9050919050565b6000819050919050565b611fee83611fb9565b612002611ffa82611fdb565b848454611f67565b825550505050565b600090565b61201761200a565b612022818484611fe5565b505050565b5b818110156120465761203b60008261200f565b600181019050612028565b5050565b601f82111561208b5761205c81611f35565b61206584611f4a565b81016020851015612074578190505b61208861208085611f4a565b830182612027565b50505b505050565b600082821c905092915050565b60006120ae60001984600802612090565b1980831691505092915050565b60006120c7838361209d565b9150826002028217905092915050565b6120e082611193565b67ffffffffffffffff8111156120f9576120f86112e5565b5b61210382546119cc565b61210e82828561204a565b600060209050601f831160018114612141576000841561212f578287015190505b61213985826120bb565b8655506121a1565b601f19841661214f86611f35565b60005b8281101561217757848901518255600182019150602085019450602081019050612152565b868310156121945784890151612190601f89168261209d565b8355505b6001600288020188555050505b505050505050565b7f496e69746961746f72732073706c6974206e6f74207472616e73666572726564600082015250565b60006121df6020836115af565b91506121ea826121a9565b602082019050919050565b6000602082019050818103600083015261220e816121d2565b9050919050565b6000612220826116cb565b9050919050565b61223081612215565b82525050565b600060408201905061224b6000830185612227565b612258602083018461161b565b939250505056fea26469706673582212203218d5bb20f7088bfca7281954926a41b9113e20f5533678168da0d74aa71d7864736f6c63430008110033",
  "linkReferences": {},
  "deployedLinkReferences": {}
}