{
  "_format": "hh-sol-artifact-1",
  "contractName": "SplitExpenses",
  "sourceName": "contracts/SplitExpenses.sol",
  "abi": [
    {
      "inputs": [
        {
          "internalType": "address",
          "name": "_tokenAddress",
          "type": "address"
        },
        {
          "internalType": "address",
          "name": "_deployer",
          "type": "address"
        }
      ],
      "stateMutability": "nonpayable",
      "type": "constructor"
    },
    {
      "anonymous": false,
      "inputs": [
        {
          "indexed": false,
          "internalType": "address",
          "name": "sender",
          "type": "address"
        },
        {
          "indexed": false,
          "internalType": "uint256",
          "name": "amount",
          "type": "uint256"
        }
      ],
      "name": "DepositReceived",
      "type": "event"
    },
    {
      "anonymous": false,
      "inputs": [
        {
          "indexed": false,
          "internalType": "address",
          "name": "initiator",
          "type": "address"
        },
        {
          "indexed": false,
          "internalType": "uint256",
          "name": "totalAmount",
          "type": "uint256"
        }
      ],
      "name": "SplitCompleted",
      "type": "event"
    },
    {
      "anonymous": false,
      "inputs": [
        {
          "indexed": false,
          "internalType": "address",
          "name": "initiator",
          "type": "address"
        },
        {
          "indexed": false,
          "internalType": "uint256",
          "name": "total",
          "type": "uint256"
        }
      ],
      "name": "SplitInitiated",
      "type": "event"
    },
    {
      "inputs": [
        {
          "internalType": "string",
          "name": "_name",
          "type": "string"
        }
      ],
      "name": "contribute",
      "outputs": [],
      "stateMutability": "nonpayable",
      "type": "function"
    },
    {
      "inputs": [],
      "name": "deployer",
      "outputs": [
        {
          "internalType": "address",
          "name": "",
          "type": "address"
        }
      ],
      "stateMutability": "view",
      "type": "function"
    },
    {
      "inputs": [
        {
          "internalType": "string",
          "name": "_name",
          "type": "string"
        },
        {
          "internalType": "address",
          "name": "_account",
          "type": "address"
        }
      ],
      "name": "getAmount",
      "outputs": [
        {
          "internalType": "uint256",
          "name": "",
          "type": "uint256"
        }
      ],
      "stateMutability": "view",
      "type": "function"
    },
    {
      "inputs": [
        {
          "internalType": "string",
          "name": "_name",
          "type": "string"
        }
      ],
      "name": "getMembers",
      "outputs": [
        {
          "internalType": "address[]",
          "name": "",
          "type": "address[]"
        }
      ],
      "stateMutability": "view",
      "type": "function"
    },
    {
      "inputs": [
        {
          "internalType": "string",
          "name": "_name",
          "type": "string"
        }
      ],
      "name": "getTotal",
      "outputs": [
        {
          "internalType": "uint256",
          "name": "",
          "type": "uint256"
        }
      ],
      "stateMutability": "view",
      "type": "function"
    },
    {
      "inputs": [
        {
          "internalType": "address",
          "name": "_account",
          "type": "address"
        }
      ],
      "name": "getUserGroups",
      "outputs": [
        {
          "internalType": "string[]",
          "name": "",
          "type": "string[]"
        }
      ],
      "stateMutability": "view",
      "type": "function"
    },
    {
      "inputs": [
        {
          "internalType": "string",
          "name": "",
          "type": "string"
        }
      ],
      "name": "groups",
      "outputs": [
        {
          "internalType": "string",
          "name": "id",
          "type": "string"
        },
        {
          "internalType": "uint256",
          "name": "totalAmount",
          "type": "uint256"
        }
      ],
      "stateMutability": "view",
      "type": "function"
    },
    {
      "inputs": [
        {
          "internalType": "string",
          "name": "_name",
          "type": "string"
        },
        {
          "internalType": "uint256",
          "name": "_totalAmount",
          "type": "uint256"
        },
        {
          "internalType": "address payable[]",
          "name": "_members",
          "type": "address[]"
        },
        {
          "internalType": "uint256[]",
          "name": "_amounts",
          "type": "uint256[]"
        }
      ],
      "name": "initiateSplit",
      "outputs": [],
      "stateMutability": "nonpayable",
      "type": "function"
    },
    {
      "inputs": [],
      "name": "token",
      "outputs": [
        {
          "internalType": "contract ERC20",
          "name": "",
          "type": "address"
        }
      ],
      "stateMutability": "view",
      "type": "function"
    },
    {
      "inputs": [
        {
          "internalType": "string",
          "name": "_name",
          "type": "string"
        }
      ],
      "name": "transferTotal",
      "outputs": [],
      "stateMutability": "nonpayable",
      "type": "function"
    },
    {
      "inputs": [
        {
          "internalType": "address",
          "name": "",
          "type": "address"
        },
        {
          "internalType": "uint256",
          "name": "",
          "type": "uint256"
        }
      ],
      "name": "userGroups",
      "outputs": [
        {
          "internalType": "string",
          "name": "",
          "type": "string"
        }
      ],
      "stateMutability": "view",
      "type": "function"
    },
    {
      "stateMutability": "payable",
      "type": "receive"
    }
  ],
  "bytecode": "0x60806040523480156200001157600080fd5b50604051620025d6380380620025d6833981810160405281019062000037919062000133565b600160008190555080600160006101000a81548173ffffffffffffffffffffffffffffffffffffffff021916908373ffffffffffffffffffffffffffffffffffffffff16021790555081600560006101000a81548173ffffffffffffffffffffffffffffffffffffffff021916908373ffffffffffffffffffffffffffffffffffffffff16021790555050506200017a565b600080fd5b600073ffffffffffffffffffffffffffffffffffffffff82169050919050565b6000620000fb82620000ce565b9050919050565b6200010d81620000ee565b81146200011957600080fd5b50565b6000815190506200012d8162000102565b92915050565b600080604083850312156200014d576200014c620000c9565b5b60006200015d858286016200011c565b925050602062000170858286016200011c565b9150509250929050565b61244c806200018a6000396000f3fe6080604052600436106100a05760003560e01c8063754e9b5f11610064578063754e9b5f146101ca57806378f120b114610207578063d5f3948814610244578063e7a8138c1461026f578063fc0c546a14610298578063feb7ea7b146102c3576100a7565b80633da04e4a146100ac57806356250571146100e95780635c43217b1461012657806360a9e0971461014f5780636b52230b1461018c576100a7565b366100a757005b600080fd5b3480156100b857600080fd5b506100d360048036038101906100ce9190611295565b6102ec565b6040516100e09190611414565b60405180910390f35b3480156100f557600080fd5b50610110600480360381019061010b919061156b565b610404565b60405161011d9190611672565b60405180910390f35b34801561013257600080fd5b5061014d6004803603810190610148919061156b565b6104b3565b005b34801561015b57600080fd5b50610176600480360381019061017191906116ca565b6106dc565b6040516101839190611754565b60405180910390f35b34801561019857600080fd5b506101b360048036038101906101ae919061156b565b610795565b6040516101c1929190611785565b60405180910390f35b3480156101d657600080fd5b506101f160048036038101906101ec91906117b5565b610857565b6040516101fe9190611811565b60405180910390f35b34801561021357600080fd5b5061022e6004803603810190610229919061156b565b6108c0565b60405161023b9190611811565b60405180910390f35b34801561025057600080fd5b506102596108eb565b604051610266919061183b565b60405180910390f35b34801561027b57600080fd5b506102966004803603810190610291919061156b565b610911565b005b3480156102a457600080fd5b506102ad610be7565b6040516102ba91906118b5565b60405180910390f35b3480156102cf57600080fd5b506102ea60048036038101906102e59190611a99565b610c0d565b005b6060600360008373ffffffffffffffffffffffffffffffffffffffff1673ffffffffffffffffffffffffffffffffffffffff168152602001908152602001600020805480602002602001604051908101604052809291908181526020016000905b828210156103f957838290600052602060002001805461036c90611b83565b80601f016020809104026020016040519081016040528092919081815260200182805461039890611b83565b80156103e55780601f106103ba576101008083540402835291602001916103e5565b820191906000526020600020905b8154815290600101906020018083116103c857829003601f168201915b50505050508152602001906001019061034d565b505050509050919050565b60606002826040516104169190611bf0565b90815260200160405180910390206001018054806020026020016040519081016040528092919081815260200182805480156104a757602002820191906000526020600020905b8160009054906101000a900473ffffffffffffffffffffffffffffffffffffffff1673ffffffffffffffffffffffffffffffffffffffff168152602001906001019080831161045d575b50505050509050919050565b60006004826040516104c59190611bf0565b908152602001604051809103902054905060006002836040516104e89190611bf0565b908152602001604051809103902060030160003373ffffffffffffffffffffffffffffffffffffffff1673ffffffffffffffffffffffffffffffffffffffff168152602001908152602001600020549050600560009054906101000a900473ffffffffffffffffffffffffffffffffffffffff1673ffffffffffffffffffffffffffffffffffffffff166323b872dd600160009054906101000a900473ffffffffffffffffffffffffffffffffffffffff1630846040518463ffffffff1660e01b81526004016105ba93929190611c07565b6020604051808303816000875af11580156105d9573d6000803e3d6000fd5b505050506040513d601f19601f820116820180604052508101906105fd9190611c76565b508060048460405161060f9190611bf0565b9081526020016040518091039020600082825461062c9190611cd2565b92505081905550818161063f9190611cd2565b60048460405161064f9190611bf0565b9081526020016040518091039020541461069e576040517f08c379a000000000000000000000000000000000000000000000000000000000815260040161069590611d78565b60405180910390fd5b7f9936746a4565f9766fa768f88f56a7487c78780ac179562773d1c75c5269537e33826040516106cf929190611d98565b60405180910390a1505050565b600360205281600052604060002081815481106106f857600080fd5b9060005260206000200160009150915050805461071490611b83565b80601f016020809104026020016040519081016040528092919081815260200182805461074090611b83565b801561078d5780601f106107625761010080835404028352916020019161078d565b820191906000526020600020905b81548152906001019060200180831161077057829003601f168201915b505050505081565b6002818051602081018201805184825260208301602085012081835280955050505050506000915090508060000180546107ce90611b83565b80601f01602080910402602001604051908101604052809291908181526020018280546107fa90611b83565b80156108475780601f1061081c57610100808354040283529160200191610847565b820191906000526020600020905b81548152906001019060200180831161082a57829003601f168201915b5050505050908060020154905082565b60006002836040516108699190611bf0565b908152602001604051809103902060030160008373ffffffffffffffffffffffffffffffffffffffff1673ffffffffffffffffffffffffffffffffffffffff16815260200190815260200160002054905092915050565b60006002826040516108d29190611bf0565b9081526020016040518091039020600201549050919050565b600160009054906101000a900473ffffffffffffffffffffffffffffffffffffffff1681565b6002816040516109219190611bf0565b9081526020016040518091039020600201546004826040516109439190611bf0565b90815260200160405180910390205414610992576040517f08c379a000000000000000000000000000000000000000000000000000000000815260040161098990611e33565b60405180910390fd5b6002816040516109a29190611bf0565b90815260200160405180910390206001016000815481106109c6576109c5611e53565b5b9060005260206000200160009054906101000a900473ffffffffffffffffffffffffffffffffffffffff1673ffffffffffffffffffffffffffffffffffffffff163373ffffffffffffffffffffffffffffffffffffffff1614610a5e576040517f08c379a0000000000000000000000000000000000000000000000000000000008152600401610a5590611ece565b60405180910390fd5b600560009054906101000a900473ffffffffffffffffffffffffffffffffffffffff1673ffffffffffffffffffffffffffffffffffffffff1663a9059cbb33600484604051610aad9190611bf0565b9081526020016040518091039020546040518363ffffffff1660e01b8152600401610ad9929190611d98565b6020604051808303816000875af1158015610af8573d6000803e3d6000fd5b505050506040513d601f19601f82011682018060405250810190610b1c9190611c76565b506000600482604051610b2f9190611bf0565b908152602001604051809103902081905550600281604051610b519190611bf0565b908152602001604051809103902060008082016000610b70919061111b565b600182016000610b80919061115b565b600282016000905550507f8631fa81f03d719a138fc5f15fc944030b2da7ce394bd56816f47950c347aa7133600283604051610bbc9190611bf0565b908152602001604051809103902060020154604051610bdc929190611d98565b60405180910390a150565b600560009054906101000a900473ffffffffffffffffffffffffffffffffffffffff1681565b600081600081518110610c2357610c22611e53565b5b60200260200101511015610c6c576040517f08c379a0000000000000000000000000000000000000000000000000000000008152600401610c6390611f60565b60405180910390fd5b600080600090505b8251811015610d1657828181518110610c9057610c8f611e53565b5b602002602001015182610ca39190611cd2565b91506000838281518110610cba57610cb9611e53565b5b60200260200101511015610d03576040517f08c379a0000000000000000000000000000000000000000000000000000000008152600401610cfa90611ff2565b60405180910390fd5b8080610d0e90612012565b915050610c74565b50838114610d59576040517f08c379a0000000000000000000000000000000000000000000000000000000008152600401610d50906120cc565b60405180910390fd5b84600286604051610d6a9190611bf0565b90815260200160405180910390206000019081610d87919061228e565b5082600286604051610d999190611bf0565b90815260200160405180910390206001019080519060200190610dbd92919061117c565b5083600286604051610dcf9190611bf0565b90815260200160405180910390206002018190555060005b8251811015610f2657828181518110610e0357610e02611e53565b5b6020026020010151600287604051610e1b9190611bf0565b90815260200160405180910390206003016000868481518110610e4157610e40611e53565b5b602002602001015173ffffffffffffffffffffffffffffffffffffffff1673ffffffffffffffffffffffffffffffffffffffff1681526020019081526020016000208190555060036000858381518110610e9e57610e9d611e53565b5b602002602001015173ffffffffffffffffffffffffffffffffffffffff1673ffffffffffffffffffffffffffffffffffffffff16815260200190815260200160002086908060018154018082558091505060019003906000526020600020016000909190919091509081610f12919061228e565b508080610f1e90612012565b915050610de7565b50600560009054906101000a900473ffffffffffffffffffffffffffffffffffffffff1673ffffffffffffffffffffffffffffffffffffffff166323b872dd600160009054906101000a900473ffffffffffffffffffffffffffffffffffffffff163085600081518110610f9d57610f9c611e53565b5b60200260200101516040518463ffffffff1660e01b8152600401610fc393929190611c07565b6020604051808303816000875af1158015610fe2573d6000803e3d6000fd5b505050506040513d601f19601f820116820180604052508101906110069190611c76565b508160008151811061101b5761101a611e53565b5b60200260200101516004866040516110339190611bf0565b9081526020016040518091039020819055508160008151811061105957611058611e53565b5b60200260200101516004866040516110719190611bf0565b908152602001604051809103902054146110c0576040517f08c379a00000000000000000000000000000000000000000000000000000000081526004016110b7906123ac565b60405180910390fd5b7fb53b02d72051b8c919bb9d2a3dc55ddace5785b3e6ac9c656452aaea87749c77836000815181106110f5576110f4611e53565b5b60200260200101518560405161110c9291906123ed565b60405180910390a15050505050565b50805461112790611b83565b6000825580601f106111395750611158565b601f0160209004906000526020600020908101906111579190611206565b5b50565b50805460008255906000526020600020908101906111799190611206565b50565b8280548282559060005260206000209081019282156111f5579160200282015b828111156111f45782518260006101000a81548173ffffffffffffffffffffffffffffffffffffffff021916908373ffffffffffffffffffffffffffffffffffffffff1602179055509160200191906001019061119c565b5b5090506112029190611206565b5090565b5b8082111561121f576000816000905550600101611207565b5090565b6000604051905090565b600080fd5b600080fd5b600073ffffffffffffffffffffffffffffffffffffffff82169050919050565b600061126282611237565b9050919050565b61127281611257565b811461127d57600080fd5b50565b60008135905061128f81611269565b92915050565b6000602082840312156112ab576112aa61122d565b5b60006112b984828501611280565b91505092915050565b600081519050919050565b600082825260208201905092915050565b6000819050602082019050919050565b600081519050919050565b600082825260208201905092915050565b60005b8381101561132857808201518184015260208101905061130d565b60008484015250505050565b6000601f19601f8301169050919050565b6000611350826112ee565b61135a81856112f9565b935061136a81856020860161130a565b61137381611334565b840191505092915050565b600061138a8383611345565b905092915050565b6000602082019050919050565b60006113aa826112c2565b6113b481856112cd565b9350836020820285016113c6856112de565b8060005b8581101561140257848403895281516113e3858261137e565b94506113ee83611392565b925060208a019950506001810190506113ca565b50829750879550505050505092915050565b6000602082019050818103600083015261142e818461139f565b905092915050565b600080fd5b600080fd5b7f4e487b7100000000000000000000000000000000000000000000000000000000600052604160045260246000fd5b61147882611334565b810181811067ffffffffffffffff8211171561149757611496611440565b5b80604052505050565b60006114aa611223565b90506114b6828261146f565b919050565b600067ffffffffffffffff8211156114d6576114d5611440565b5b6114df82611334565b9050602081019050919050565b82818337600083830152505050565b600061150e611509846114bb565b6114a0565b90508281526020810184848401111561152a5761152961143b565b5b6115358482856114ec565b509392505050565b600082601f83011261155257611551611436565b5b81356115628482602086016114fb565b91505092915050565b6000602082840312156115815761158061122d565b5b600082013567ffffffffffffffff81111561159f5761159e611232565b5b6115ab8482850161153d565b91505092915050565b600081519050919050565b600082825260208201905092915050565b6000819050602082019050919050565b6115e981611257565b82525050565b60006115fb83836115e0565b60208301905092915050565b6000602082019050919050565b600061161f826115b4565b61162981856115bf565b9350611634836115d0565b8060005b8381101561166557815161164c88826115ef565b975061165783611607565b925050600181019050611638565b5085935050505092915050565b6000602082019050818103600083015261168c8184611614565b905092915050565b6000819050919050565b6116a781611694565b81146116b257600080fd5b50565b6000813590506116c48161169e565b92915050565b600080604083850312156116e1576116e061122d565b5b60006116ef85828601611280565b9250506020611700858286016116b5565b9150509250929050565b600082825260208201905092915050565b6000611726826112ee565b611730818561170a565b935061174081856020860161130a565b61174981611334565b840191505092915050565b6000602082019050818103600083015261176e818461171b565b905092915050565b61177f81611694565b82525050565b6000604082019050818103600083015261179f818561171b565b90506117ae6020830184611776565b9392505050565b600080604083850312156117cc576117cb61122d565b5b600083013567ffffffffffffffff8111156117ea576117e9611232565b5b6117f68582860161153d565b925050602061180785828601611280565b9150509250929050565b60006020820190506118266000830184611776565b92915050565b61183581611257565b82525050565b6000602082019050611850600083018461182c565b92915050565b6000819050919050565b600061187b61187661187184611237565b611856565b611237565b9050919050565b600061188d82611860565b9050919050565b600061189f82611882565b9050919050565b6118af81611894565b82525050565b60006020820190506118ca60008301846118a6565b92915050565b600067ffffffffffffffff8211156118eb576118ea611440565b5b602082029050602081019050919050565b600080fd5b600061190c82611237565b9050919050565b61191c81611901565b811461192757600080fd5b50565b60008135905061193981611913565b92915050565b600061195261194d846118d0565b6114a0565b90508083825260208201905060208402830185811115611975576119746118fc565b5b835b8181101561199e578061198a888261192a565b845260208401935050602081019050611977565b5050509392505050565b600082601f8301126119bd576119bc611436565b5b81356119cd84826020860161193f565b91505092915050565b600067ffffffffffffffff8211156119f1576119f0611440565b5b602082029050602081019050919050565b6000611a15611a10846119d6565b6114a0565b90508083825260208201905060208402830185811115611a3857611a376118fc565b5b835b81811015611a615780611a4d88826116b5565b845260208401935050602081019050611a3a565b5050509392505050565b600082601f830112611a8057611a7f611436565b5b8135611a90848260208601611a02565b91505092915050565b60008060008060808587031215611ab357611ab261122d565b5b600085013567ffffffffffffffff811115611ad157611ad0611232565b5b611add8782880161153d565b9450506020611aee878288016116b5565b935050604085013567ffffffffffffffff811115611b0f57611b0e611232565b5b611b1b878288016119a8565b925050606085013567ffffffffffffffff811115611b3c57611b3b611232565b5b611b4887828801611a6b565b91505092959194509250565b7f4e487b7100000000000000000000000000000000000000000000000000000000600052602260045260246000fd5b60006002820490506001821680611b9b57607f821691505b602082108103611bae57611bad611b54565b5b50919050565b600081905092915050565b6000611bca826112ee565b611bd48185611bb4565b9350611be481856020860161130a565b80840191505092915050565b6000611bfc8284611bbf565b915081905092915050565b6000606082019050611c1c600083018661182c565b611c29602083018561182c565b611c366040830184611776565b949350505050565b60008115159050919050565b611c5381611c3e565b8114611c5e57600080fd5b50565b600081519050611c7081611c4a565b92915050565b600060208284031215611c8c57611c8b61122d565b5b6000611c9a84828501611c61565b91505092915050565b7f4e487b7100000000000000000000000000000000000000000000000000000000600052601160045260246000fd5b6000611cdd82611694565b9150611ce883611694565b9250828201905080821115611d0057611cff611ca3565b5b92915050565b7f46756e6473206e6f742072656365697665642066726f6d206465706f7369746f60008201527f7200000000000000000000000000000000000000000000000000000000000000602082015250565b6000611d6260218361170a565b9150611d6d82611d06565b604082019050919050565b60006020820190508181036000830152611d9181611d55565b9050919050565b6000604082019050611dad600083018561182c565b611dba6020830184611776565b9392505050565b7f46756e647320617265206e6f7420726561647920746f20626520636f6c6c656360008201527f7465642079657400000000000000000000000000000000000000000000000000602082015250565b6000611e1d60278361170a565b9150611e2882611dc1565b604082019050919050565b60006020820190508181036000830152611e4c81611e10565b9050919050565b7f4e487b7100000000000000000000000000000000000000000000000000000000600052603260045260246000fd5b7f43616c6c6572206973206e6f742073706c697420696e69746961746f72000000600082015250565b6000611eb8601d8361170a565b9150611ec382611e82565b602082019050919050565b60006020820190508181036000830152611ee781611eab565b9050919050565b7f496e69746961746f7220616d6f756e74206d757374206265206e6f6e2d6e656760008201527f6174697665000000000000000000000000000000000000000000000000000000602082015250565b6000611f4a60258361170a565b9150611f5582611eee565b604082019050919050565b60006020820190508181036000830152611f7981611f3d565b9050919050565b7f4465706f7369746f7220616d6f756e74206d757374206265206e6f6e2d6e656760008201527f6174697665000000000000000000000000000000000000000000000000000000602082015250565b6000611fdc60258361170a565b9150611fe782611f80565b604082019050919050565b6000602082019050818103600083015261200b81611fcf565b9050919050565b600061201d82611694565b91507fffffffffffffffffffffffffffffffffffffffffffffffffffffffffffffffff820361204f5761204e611ca3565b5b600182019050919050565b7f53706c697420646f6573206e6f7420657175616c20746f74616c20616d6f756e60008201527f74206f7765642e00000000000000000000000000000000000000000000000000602082015250565b60006120b660278361170a565b91506120c18261205a565b604082019050919050565b600060208201905081810360008301526120e5816120a9565b9050919050565b60008190508160005260206000209050919050565b60006020601f8301049050919050565b600082821b905092915050565b60006008830261214e7fffffffffffffffffffffffffffffffffffffffffffffffffffffffffffffffff82612111565b6121588683612111565b95508019841693508086168417925050509392505050565b600061218b61218661218184611694565b611856565b611694565b9050919050565b6000819050919050565b6121a583612170565b6121b96121b182612192565b84845461211e565b825550505050565b600090565b6121ce6121c1565b6121d981848461219c565b505050565b5b818110156121fd576121f26000826121c6565b6001810190506121df565b5050565b601f82111561224257612213816120ec565b61221c84612101565b8101602085101561222b578190505b61223f61223785612101565b8301826121de565b50505b505050565b600082821c905092915050565b600061226560001984600802612247565b1980831691505092915050565b600061227e8383612254565b9150826002028217905092915050565b612297826112ee565b67ffffffffffffffff8111156122b0576122af611440565b5b6122ba8254611b83565b6122c5828285612201565b600060209050601f8311600181146122f857600084156122e6578287015190505b6122f08582612272565b865550612358565b601f198416612306866120ec565b60005b8281101561232e57848901518255600182019150602085019450602081019050612309565b8683101561234b5784890151612347601f891682612254565b8355505b6001600288020188555050505b505050505050565b7f496e69746961746f72732073706c6974206e6f74207472616e73666572726564600082015250565b600061239660208361170a565b91506123a182612360565b602082019050919050565b600060208201905081810360008301526123c581612389565b9050919050565b60006123d782611882565b9050919050565b6123e7816123cc565b82525050565b600060408201905061240260008301856123de565b61240f6020830184611776565b939250505056fea26469706673582212209fa61fe83fb33e993101b239cd627e8d9ae45727ef296014e2fefe8e2190b31564736f6c63430008110033",
  "linkReferences": {},
  "deployedLinkReferences": {}
}