{
  "_format": "hh-sol-artifact-1",
  "contractName": "SplitExpenses",
  "sourceName": "contracts/SplitExpenses.sol",
  "abi": [
    {
      "inputs": [
        {
          "internalType": "address",
          "name": "_tokenAddress",
          "type": "address"
        },
        {
          "internalType": "address",
          "name": "_deployer",
          "type": "address"
        }
      ],
      "stateMutability": "nonpayable",
      "type": "constructor"
    },
    {
      "anonymous": false,
      "inputs": [
        {
          "indexed": false,
          "internalType": "address",
          "name": "sender",
          "type": "address"
        },
        {
          "indexed": false,
          "internalType": "uint256",
          "name": "amount",
          "type": "uint256"
        }
      ],
      "name": "DepositReceived",
      "type": "event"
    },
    {
      "anonymous": false,
      "inputs": [
        {
          "indexed": false,
          "internalType": "address",
          "name": "initiator",
          "type": "address"
        },
        {
          "indexed": false,
          "internalType": "uint256",
          "name": "totalAmount",
          "type": "uint256"
        }
      ],
      "name": "SplitCompleted",
      "type": "event"
    },
    {
      "anonymous": false,
      "inputs": [
        {
          "indexed": false,
          "internalType": "address",
          "name": "initiator",
          "type": "address"
        },
        {
          "indexed": false,
          "internalType": "uint256",
          "name": "total",
          "type": "uint256"
        }
      ],
      "name": "SplitInitiated",
      "type": "event"
    },
    {
      "inputs": [
        {
          "internalType": "string",
          "name": "_name",
          "type": "string"
        }
      ],
      "name": "contribute",
      "outputs": [],
      "stateMutability": "nonpayable",
      "type": "function"
    },
    {
      "inputs": [],
      "name": "deployer",
      "outputs": [
        {
          "internalType": "address",
          "name": "",
          "type": "address"
        }
      ],
      "stateMutability": "view",
      "type": "function"
    },
    {
      "inputs": [
        {
          "internalType": "string",
          "name": "",
          "type": "string"
        }
      ],
      "name": "groups",
      "outputs": [
        {
          "internalType": "string",
          "name": "id",
          "type": "string"
        },
        {
          "internalType": "uint256",
          "name": "totalAmount",
          "type": "uint256"
        }
      ],
      "stateMutability": "view",
      "type": "function"
    },
    {
      "inputs": [
        {
          "internalType": "string",
          "name": "_name",
          "type": "string"
        },
        {
          "internalType": "uint256",
          "name": "_totalAmount",
          "type": "uint256"
        },
        {
          "internalType": "address payable[]",
          "name": "_members",
          "type": "address[]"
        },
        {
          "internalType": "uint256[]",
          "name": "_amounts",
          "type": "uint256[]"
        }
      ],
      "name": "initiateSplit",
      "outputs": [],
      "stateMutability": "nonpayable",
      "type": "function"
    },
    {
      "inputs": [],
      "name": "token",
      "outputs": [
        {
          "internalType": "contract ERC20",
          "name": "",
          "type": "address"
        }
      ],
      "stateMutability": "view",
      "type": "function"
    },
    {
      "inputs": [
        {
          "internalType": "string",
          "name": "_name",
          "type": "string"
        }
      ],
      "name": "transferTotal",
      "outputs": [],
      "stateMutability": "nonpayable",
      "type": "function"
    },
    {
      "stateMutability": "payable",
      "type": "receive"
    }
  ],
  "bytecode": "0x60806040523480156200001157600080fd5b5060405162001d9338038062001d93833981810160405281019062000037919062000133565b600160008190555080600160006101000a81548173ffffffffffffffffffffffffffffffffffffffff021916908373ffffffffffffffffffffffffffffffffffffffff16021790555081600460006101000a81548173ffffffffffffffffffffffffffffffffffffffff021916908373ffffffffffffffffffffffffffffffffffffffff16021790555050506200017a565b600080fd5b600073ffffffffffffffffffffffffffffffffffffffff82169050919050565b6000620000fb82620000ce565b9050919050565b6200010d81620000ee565b81146200011957600080fd5b50565b6000815190506200012d8162000102565b92915050565b600080604083850312156200014d576200014c620000c9565b5b60006200015d858286016200011c565b925050602062000170858286016200011c565b9150509250929050565b611c09806200018a6000396000f3fe6080604052600436106100595760003560e01c80635c43217b146100655780636b52230b1461008e578063d5f39488146100cc578063e7a8138c146100f7578063fc0c546a14610120578063feb7ea7b1461014b57610060565b3661006057005b600080fd5b34801561007157600080fd5b5061008c60048036038101906100879190610e38565b610174565b005b34801561009a57600080fd5b506100b560048036038101906100b09190610e38565b61039d565b6040516100c3929190610f19565b60405180910390f35b3480156100d857600080fd5b506100e161045f565b6040516100ee9190610f8a565b60405180910390f35b34801561010357600080fd5b5061011e60048036038101906101199190610e38565b610485565b005b34801561012c57600080fd5b50610135610712565b6040516101429190611004565b60405180910390f35b34801561015757600080fd5b50610172600480360381019061016d9190611214565b610738565b005b6000600382604051610186919061130b565b908152602001604051809103902054905060006002836040516101a9919061130b565b908152602001604051809103902060030160003373ffffffffffffffffffffffffffffffffffffffff1673ffffffffffffffffffffffffffffffffffffffff168152602001908152602001600020549050600460009054906101000a900473ffffffffffffffffffffffffffffffffffffffff1673ffffffffffffffffffffffffffffffffffffffff166323b872dd600160009054906101000a900473ffffffffffffffffffffffffffffffffffffffff1630846040518463ffffffff1660e01b815260040161027b93929190611322565b6020604051808303816000875af115801561029a573d6000803e3d6000fd5b505050506040513d601f19601f820116820180604052508101906102be9190611391565b50806003846040516102d0919061130b565b908152602001604051809103902060008282546102ed91906113ed565b92505081905550818161030091906113ed565b600384604051610310919061130b565b9081526020016040518091039020541461035f576040517f08c379a000000000000000000000000000000000000000000000000000000000815260040161035690611493565b60405180910390fd5b7f9936746a4565f9766fa768f88f56a7487c78780ac179562773d1c75c5269537e33826040516103909291906114b3565b60405180910390a1505050565b6002818051602081018201805184825260208301602085012081835280955050505050506000915090508060000180546103d69061150b565b80601f01602080910402602001604051908101604052809291908181526020018280546104029061150b565b801561044f5780601f106104245761010080835404028352916020019161044f565b820191906000526020600020905b81548152906001019060200180831161043257829003601f168201915b5050505050908060020154905082565b600160009054906101000a900473ffffffffffffffffffffffffffffffffffffffff1681565b600281604051610495919061130b565b9081526020016040518091039020600201546003826040516104b7919061130b565b90815260200160405180910390205414610506576040517f08c379a00000000000000000000000000000000000000000000000000000000081526004016104fd906115ae565b60405180910390fd5b600281604051610516919061130b565b908152602001604051809103902060010160008154811061053a576105396115ce565b5b9060005260206000200160009054906101000a900473ffffffffffffffffffffffffffffffffffffffff1673ffffffffffffffffffffffffffffffffffffffff163373ffffffffffffffffffffffffffffffffffffffff16146105d2576040517f08c379a00000000000000000000000000000000000000000000000000000000081526004016105c990611649565b60405180910390fd5b600460009054906101000a900473ffffffffffffffffffffffffffffffffffffffff1673ffffffffffffffffffffffffffffffffffffffff1663a9059cbb33600384604051610621919061130b565b9081526020016040518091039020546040518363ffffffff1660e01b815260040161064d9291906114b3565b6020604051808303816000875af115801561066c573d6000803e3d6000fd5b505050506040513d601f19601f820116820180604052508101906106909190611391565b5060006003826040516106a3919061130b565b9081526020016040518091039020819055507f8631fa81f03d719a138fc5f15fc944030b2da7ce394bd56816f47950c347aa71336002836040516106e7919061130b565b9081526020016040518091039020600201546040516107079291906114b3565b60405180910390a150565b600460009054906101000a900473ffffffffffffffffffffffffffffffffffffffff1681565b60008160008151811061074e5761074d6115ce565b5b60200260200101511015610797576040517f08c379a000000000000000000000000000000000000000000000000000000000815260040161078e906116db565b60405180910390fd5b600080600090505b8251811015610841578281815181106107bb576107ba6115ce565b5b6020026020010151826107ce91906113ed565b915060008382815181106107e5576107e46115ce565b5b6020026020010151101561082e576040517f08c379a00000000000000000000000000000000000000000000000000000000081526004016108259061176d565b60405180910390fd5b80806108399061178d565b91505061079f565b50838114610884576040517f08c379a000000000000000000000000000000000000000000000000000000000815260040161087b90611847565b60405180910390fd5b84600286604051610895919061130b565b908152602001604051809103902060000190816108b29190611a09565b50826002866040516108c4919061130b565b908152602001604051809103902060010190805190602001906108e8929190610c37565b50836002866040516108fa919061130b565b90815260200160405180910390206002018190555060005b82518110156109c55782818151811061092e5761092d6115ce565b5b6020026020010151600287604051610946919061130b565b9081526020016040518091039020600301600086848151811061096c5761096b6115ce565b5b602002602001015173ffffffffffffffffffffffffffffffffffffffff1673ffffffffffffffffffffffffffffffffffffffff1681526020019081526020016000208190555080806109bd9061178d565b915050610912565b50600460009054906101000a900473ffffffffffffffffffffffffffffffffffffffff1673ffffffffffffffffffffffffffffffffffffffff166323b872dd600160009054906101000a900473ffffffffffffffffffffffffffffffffffffffff163085600081518110610a3c57610a3b6115ce565b5b60200260200101516040518463ffffffff1660e01b8152600401610a6293929190611322565b6020604051808303816000875af1158015610a81573d6000803e3d6000fd5b505050506040513d601f19601f82011682018060405250810190610aa59190611391565b5081600081518110610aba57610ab96115ce565b5b6020026020010151600460009054906101000a900473ffffffffffffffffffffffffffffffffffffffff1673ffffffffffffffffffffffffffffffffffffffff166370a08231306040518263ffffffff1660e01b8152600401610b1d9190610f8a565b602060405180830381865afa158015610b3a573d6000803e3d6000fd5b505050506040513d601f19601f82011682018060405250810190610b5e9190611af0565b14610b9e576040517f08c379a0000000000000000000000000000000000000000000000000000000008152600401610b9590611b69565b60405180910390fd5b81600081518110610bb257610bb16115ce565b5b6020026020010151600386604051610bca919061130b565b9081526020016040518091039020819055507fb53b02d72051b8c919bb9d2a3dc55ddace5785b3e6ac9c656452aaea87749c7783600081518110610c1157610c106115ce565b5b602002602001015185604051610c28929190611baa565b60405180910390a15050505050565b828054828255906000526020600020908101928215610cb0579160200282015b82811115610caf5782518260006101000a81548173ffffffffffffffffffffffffffffffffffffffff021916908373ffffffffffffffffffffffffffffffffffffffff16021790555091602001919060010190610c57565b5b509050610cbd9190610cc1565b5090565b5b80821115610cda576000816000905550600101610cc2565b5090565b6000604051905090565b600080fd5b600080fd5b600080fd5b600080fd5b6000601f19601f8301169050919050565b7f4e487b7100000000000000000000000000000000000000000000000000000000600052604160045260246000fd5b610d4582610cfc565b810181811067ffffffffffffffff82111715610d6457610d63610d0d565b5b80604052505050565b6000610d77610cde565b9050610d838282610d3c565b919050565b600067ffffffffffffffff821115610da357610da2610d0d565b5b610dac82610cfc565b9050602081019050919050565b82818337600083830152505050565b6000610ddb610dd684610d88565b610d6d565b905082815260208101848484011115610df757610df6610cf7565b5b610e02848285610db9565b509392505050565b600082601f830112610e1f57610e1e610cf2565b5b8135610e2f848260208601610dc8565b91505092915050565b600060208284031215610e4e57610e4d610ce8565b5b600082013567ffffffffffffffff811115610e6c57610e6b610ced565b5b610e7884828501610e0a565b91505092915050565b600081519050919050565b600082825260208201905092915050565b60005b83811015610ebb578082015181840152602081019050610ea0565b60008484015250505050565b6000610ed282610e81565b610edc8185610e8c565b9350610eec818560208601610e9d565b610ef581610cfc565b840191505092915050565b6000819050919050565b610f1381610f00565b82525050565b60006040820190508181036000830152610f338185610ec7565b9050610f426020830184610f0a565b9392505050565b600073ffffffffffffffffffffffffffffffffffffffff82169050919050565b6000610f7482610f49565b9050919050565b610f8481610f69565b82525050565b6000602082019050610f9f6000830184610f7b565b92915050565b6000819050919050565b6000610fca610fc5610fc084610f49565b610fa5565b610f49565b9050919050565b6000610fdc82610faf565b9050919050565b6000610fee82610fd1565b9050919050565b610ffe81610fe3565b82525050565b60006020820190506110196000830184610ff5565b92915050565b61102881610f00565b811461103357600080fd5b50565b6000813590506110458161101f565b92915050565b600067ffffffffffffffff82111561106657611065610d0d565b5b602082029050602081019050919050565b600080fd5b600061108782610f49565b9050919050565b6110978161107c565b81146110a257600080fd5b50565b6000813590506110b48161108e565b92915050565b60006110cd6110c88461104b565b610d6d565b905080838252602082019050602084028301858111156110f0576110ef611077565b5b835b81811015611119578061110588826110a5565b8452602084019350506020810190506110f2565b5050509392505050565b600082601f83011261113857611137610cf2565b5b81356111488482602086016110ba565b91505092915050565b600067ffffffffffffffff82111561116c5761116b610d0d565b5b602082029050602081019050919050565b600061119061118b84611151565b610d6d565b905080838252602082019050602084028301858111156111b3576111b2611077565b5b835b818110156111dc57806111c88882611036565b8452602084019350506020810190506111b5565b5050509392505050565b600082601f8301126111fb576111fa610cf2565b5b813561120b84826020860161117d565b91505092915050565b6000806000806080858703121561122e5761122d610ce8565b5b600085013567ffffffffffffffff81111561124c5761124b610ced565b5b61125887828801610e0a565b945050602061126987828801611036565b935050604085013567ffffffffffffffff81111561128a57611289610ced565b5b61129687828801611123565b925050606085013567ffffffffffffffff8111156112b7576112b6610ced565b5b6112c3878288016111e6565b91505092959194509250565b600081905092915050565b60006112e582610e81565b6112ef81856112cf565b93506112ff818560208601610e9d565b80840191505092915050565b600061131782846112da565b915081905092915050565b60006060820190506113376000830186610f7b565b6113446020830185610f7b565b6113516040830184610f0a565b949350505050565b60008115159050919050565b61136e81611359565b811461137957600080fd5b50565b60008151905061138b81611365565b92915050565b6000602082840312156113a7576113a6610ce8565b5b60006113b58482850161137c565b91505092915050565b7f4e487b7100000000000000000000000000000000000000000000000000000000600052601160045260246000fd5b60006113f882610f00565b915061140383610f00565b925082820190508082111561141b5761141a6113be565b5b92915050565b7f46756e6473206e6f742072656365697665642066726f6d206465706f7369746f60008201527f7200000000000000000000000000000000000000000000000000000000000000602082015250565b600061147d602183610e8c565b915061148882611421565b604082019050919050565b600060208201905081810360008301526114ac81611470565b9050919050565b60006040820190506114c86000830185610f7b565b6114d56020830184610f0a565b9392505050565b7f4e487b7100000000000000000000000000000000000000000000000000000000600052602260045260246000fd5b6000600282049050600182168061152357607f821691505b602082108103611536576115356114dc565b5b50919050565b7f46756e647320617265206e6f7420726561647920746f20626520636f6c6c656360008201527f7465642079657400000000000000000000000000000000000000000000000000602082015250565b6000611598602783610e8c565b91506115a38261153c565b604082019050919050565b600060208201905081810360008301526115c78161158b565b9050919050565b7f4e487b7100000000000000000000000000000000000000000000000000000000600052603260045260246000fd5b7f43616c6c6572206973206e6f742073706c697420696e69746961746f72000000600082015250565b6000611633601d83610e8c565b915061163e826115fd565b602082019050919050565b6000602082019050818103600083015261166281611626565b9050919050565b7f496e69746961746f7220616d6f756e74206d757374206265206e6f6e2d6e656760008201527f6174697665000000000000000000000000000000000000000000000000000000602082015250565b60006116c5602583610e8c565b91506116d082611669565b604082019050919050565b600060208201905081810360008301526116f4816116b8565b9050919050565b7f4465706f7369746f7220616d6f756e74206d757374206265206e6f6e2d6e656760008201527f6174697665000000000000000000000000000000000000000000000000000000602082015250565b6000611757602583610e8c565b9150611762826116fb565b604082019050919050565b600060208201905081810360008301526117868161174a565b9050919050565b600061179882610f00565b91507fffffffffffffffffffffffffffffffffffffffffffffffffffffffffffffffff82036117ca576117c96113be565b5b600182019050919050565b7f53706c697420646f6573206e6f7420657175616c20746f74616c20616d6f756e60008201527f74206f7765642e00000000000000000000000000000000000000000000000000602082015250565b6000611831602783610e8c565b915061183c826117d5565b604082019050919050565b6000602082019050818103600083015261186081611824565b9050919050565b60008190508160005260206000209050919050565b60006020601f8301049050919050565b600082821b905092915050565b6000600883026118c97fffffffffffffffffffffffffffffffffffffffffffffffffffffffffffffffff8261188c565b6118d3868361188c565b95508019841693508086168417925050509392505050565b60006119066119016118fc84610f00565b610fa5565b610f00565b9050919050565b6000819050919050565b611920836118eb565b61193461192c8261190d565b848454611899565b825550505050565b600090565b61194961193c565b611954818484611917565b505050565b5b818110156119785761196d600082611941565b60018101905061195a565b5050565b601f8211156119bd5761198e81611867565b6119978461187c565b810160208510156119a6578190505b6119ba6119b28561187c565b830182611959565b50505b505050565b600082821c905092915050565b60006119e0600019846008026119c2565b1980831691505092915050565b60006119f983836119cf565b9150826002028217905092915050565b611a1282610e81565b67ffffffffffffffff811115611a2b57611a2a610d0d565b5b611a35825461150b565b611a4082828561197c565b600060209050601f831160018114611a735760008415611a61578287015190505b611a6b85826119ed565b865550611ad3565b601f198416611a8186611867565b60005b82811015611aa957848901518255600182019150602085019450602081019050611a84565b86831015611ac65784890151611ac2601f8916826119cf565b8355505b6001600288020188555050505b505050505050565b600081519050611aea8161101f565b92915050565b600060208284031215611b0657611b05610ce8565b5b6000611b1484828501611adb565b91505092915050565b7f496e69746961746f72732073706c6974206e6f74207472616e73666572726564600082015250565b6000611b53602083610e8c565b9150611b5e82611b1d565b602082019050919050565b60006020820190508181036000830152611b8281611b46565b9050919050565b6000611b9482610fd1565b9050919050565b611ba481611b89565b82525050565b6000604082019050611bbf6000830185611b9b565b611bcc6020830184610f0a565b939250505056fea26469706673582212207813ea24d4ed5f55dd72b3f420929e14a3cdaded96c83f6c8b79fedbfc1a033a64736f6c63430008110033",
  "linkReferences": {},
  "deployedLinkReferences": {}
}