{
  "_format": "hh-sol-artifact-1",
  "contractName": "SplitExpenses",
  "sourceName": "contracts/SplitExpenses.sol",
  "abi": [
    {
      "inputs": [
        {
          "internalType": "address",
          "name": "_tokenAddress",
          "type": "address"
        },
        {
          "internalType": "address",
          "name": "_deployer",
          "type": "address"
        }
      ],
      "stateMutability": "nonpayable",
      "type": "constructor"
    },
    {
      "anonymous": false,
      "inputs": [
        {
          "indexed": false,
          "internalType": "address",
          "name": "sender",
          "type": "address"
        },
        {
          "indexed": false,
          "internalType": "uint256",
          "name": "amount",
          "type": "uint256"
        }
      ],
      "name": "DepositReceived",
      "type": "event"
    },
    {
      "anonymous": false,
      "inputs": [
        {
          "indexed": false,
          "internalType": "address",
          "name": "initiator",
          "type": "address"
        },
        {
          "indexed": false,
          "internalType": "uint256",
          "name": "totalAmount",
          "type": "uint256"
        }
      ],
      "name": "SplitCompleted",
      "type": "event"
    },
    {
      "anonymous": false,
      "inputs": [
        {
          "indexed": false,
          "internalType": "address",
          "name": "initiator",
          "type": "address"
        },
        {
          "indexed": false,
          "internalType": "uint256",
          "name": "total",
          "type": "uint256"
        }
      ],
      "name": "SplitInitiated",
      "type": "event"
    },
    {
      "inputs": [
        {
          "internalType": "string",
          "name": "_name",
          "type": "string"
        }
      ],
      "name": "contribute",
      "outputs": [],
      "stateMutability": "nonpayable",
      "type": "function"
    },
    {
      "inputs": [],
      "name": "deployer",
      "outputs": [
        {
          "internalType": "address",
          "name": "",
          "type": "address"
        }
      ],
      "stateMutability": "view",
      "type": "function"
    },
    {
      "inputs": [
        {
          "internalType": "string",
          "name": "",
          "type": "string"
        }
      ],
      "name": "groups",
      "outputs": [
        {
          "internalType": "string",
          "name": "id",
          "type": "string"
        },
        {
          "internalType": "uint256",
          "name": "totalAmount",
          "type": "uint256"
        }
      ],
      "stateMutability": "view",
      "type": "function"
    },
    {
      "inputs": [
        {
          "internalType": "string",
          "name": "_name",
          "type": "string"
        },
        {
          "internalType": "uint256",
          "name": "_totalAmount",
          "type": "uint256"
        },
        {
          "internalType": "address payable[]",
          "name": "_members",
          "type": "address[]"
        },
        {
          "internalType": "uint256[]",
          "name": "_amounts",
          "type": "uint256[]"
        }
      ],
      "name": "initiateSplit",
      "outputs": [],
      "stateMutability": "nonpayable",
      "type": "function"
    },
    {
      "inputs": [],
      "name": "token",
      "outputs": [
        {
          "internalType": "contract ERC20",
          "name": "",
          "type": "address"
        }
      ],
      "stateMutability": "view",
      "type": "function"
    },
    {
      "inputs": [
        {
          "internalType": "string",
          "name": "_name",
          "type": "string"
        }
      ],
      "name": "transferTotal",
      "outputs": [],
      "stateMutability": "nonpayable",
      "type": "function"
    },
    {
      "stateMutability": "payable",
      "type": "receive"
    }
  ],
  "bytecode": "0x60806040523480156200001157600080fd5b5060405162001cd438038062001cd4833981810160405281019062000037919062000133565b600160008190555080600160006101000a81548173ffffffffffffffffffffffffffffffffffffffff021916908373ffffffffffffffffffffffffffffffffffffffff16021790555081600460006101000a81548173ffffffffffffffffffffffffffffffffffffffff021916908373ffffffffffffffffffffffffffffffffffffffff16021790555050506200017a565b600080fd5b600073ffffffffffffffffffffffffffffffffffffffff82169050919050565b6000620000fb82620000ce565b9050919050565b6200010d81620000ee565b81146200011957600080fd5b50565b6000815190506200012d8162000102565b92915050565b600080604083850312156200014d576200014c620000c9565b5b60006200015d858286016200011c565b925050602062000170858286016200011c565b9150509250929050565b611b4a806200018a6000396000f3fe6080604052600436106100595760003560e01c80635c43217b146100655780636b52230b1461008e578063d5f39488146100cc578063e7a8138c146100f7578063fc0c546a14610120578063feb7ea7b1461014b57610060565b3661006057005b600080fd5b34801561007157600080fd5b5061008c60048036038101906100879190610dbb565b610174565b005b34801561009a57600080fd5b506100b560048036038101906100b09190610dbb565b61039d565b6040516100c3929190610e9c565b60405180910390f35b3480156100d857600080fd5b506100e161045f565b6040516100ee9190610f0d565b60405180910390f35b34801561010357600080fd5b5061011e60048036038101906101199190610dbb565b610485565b005b34801561012c57600080fd5b50610135610712565b6040516101429190610f87565b60405180910390f35b34801561015757600080fd5b50610172600480360381019061016d9190611197565b610738565b005b6000600382604051610186919061128e565b908152602001604051809103902054905060006002836040516101a9919061128e565b908152602001604051809103902060030160003373ffffffffffffffffffffffffffffffffffffffff1673ffffffffffffffffffffffffffffffffffffffff168152602001908152602001600020549050600460009054906101000a900473ffffffffffffffffffffffffffffffffffffffff1673ffffffffffffffffffffffffffffffffffffffff166323b872dd600160009054906101000a900473ffffffffffffffffffffffffffffffffffffffff1630846040518463ffffffff1660e01b815260040161027b939291906112a5565b6020604051808303816000875af115801561029a573d6000803e3d6000fd5b505050506040513d601f19601f820116820180604052508101906102be9190611314565b50806003846040516102d0919061128e565b908152602001604051809103902060008282546102ed9190611370565b9250508190555081816103009190611370565b600384604051610310919061128e565b9081526020016040518091039020541461035f576040517f08c379a000000000000000000000000000000000000000000000000000000000815260040161035690611416565b60405180910390fd5b7f9936746a4565f9766fa768f88f56a7487c78780ac179562773d1c75c5269537e3382604051610390929190611436565b60405180910390a1505050565b6002818051602081018201805184825260208301602085012081835280955050505050506000915090508060000180546103d69061148e565b80601f01602080910402602001604051908101604052809291908181526020018280546104029061148e565b801561044f5780601f106104245761010080835404028352916020019161044f565b820191906000526020600020905b81548152906001019060200180831161043257829003601f168201915b5050505050908060020154905082565b600160009054906101000a900473ffffffffffffffffffffffffffffffffffffffff1681565b600281604051610495919061128e565b9081526020016040518091039020600201546003826040516104b7919061128e565b90815260200160405180910390205414610506576040517f08c379a00000000000000000000000000000000000000000000000000000000081526004016104fd90611531565b60405180910390fd5b600281604051610516919061128e565b908152602001604051809103902060010160008154811061053a57610539611551565b5b9060005260206000200160009054906101000a900473ffffffffffffffffffffffffffffffffffffffff1673ffffffffffffffffffffffffffffffffffffffff163373ffffffffffffffffffffffffffffffffffffffff16146105d2576040517f08c379a00000000000000000000000000000000000000000000000000000000081526004016105c9906115cc565b60405180910390fd5b600460009054906101000a900473ffffffffffffffffffffffffffffffffffffffff1673ffffffffffffffffffffffffffffffffffffffff1663a9059cbb33600384604051610621919061128e565b9081526020016040518091039020546040518363ffffffff1660e01b815260040161064d929190611436565b6020604051808303816000875af115801561066c573d6000803e3d6000fd5b505050506040513d601f19601f820116820180604052508101906106909190611314565b5060006003826040516106a3919061128e565b9081526020016040518091039020819055507f8631fa81f03d719a138fc5f15fc944030b2da7ce394bd56816f47950c347aa71336002836040516106e7919061128e565b908152602001604051809103902060020154604051610707929190611436565b60405180910390a150565b600460009054906101000a900473ffffffffffffffffffffffffffffffffffffffff1681565b60008160008151811061074e5761074d611551565b5b60200260200101511015610797576040517f08c379a000000000000000000000000000000000000000000000000000000000815260040161078e9061165e565b60405180910390fd5b600080600090505b8251811015610841578281815181106107bb576107ba611551565b5b6020026020010151826107ce9190611370565b915060008382815181106107e5576107e4611551565b5b6020026020010151101561082e576040517f08c379a0000000000000000000000000000000000000000000000000000000008152600401610825906116f0565b60405180910390fd5b808061083990611710565b91505061079f565b50838114610884576040517f08c379a000000000000000000000000000000000000000000000000000000000815260040161087b906117ca565b60405180910390fd5b84600286604051610895919061128e565b908152602001604051809103902060000190816108b2919061198c565b50826002866040516108c4919061128e565b908152602001604051809103902060010190805190602001906108e8929190610bba565b50836002866040516108fa919061128e565b90815260200160405180910390206002018190555060005b82518110156109c55782818151811061092e5761092d611551565b5b6020026020010151600287604051610946919061128e565b9081526020016040518091039020600301600086848151811061096c5761096b611551565b5b602002602001015173ffffffffffffffffffffffffffffffffffffffff1673ffffffffffffffffffffffffffffffffffffffff1681526020019081526020016000208190555080806109bd90611710565b915050610912565b50600460009054906101000a900473ffffffffffffffffffffffffffffffffffffffff1673ffffffffffffffffffffffffffffffffffffffff166323b872dd600160009054906101000a900473ffffffffffffffffffffffffffffffffffffffff163085600081518110610a3c57610a3b611551565b5b60200260200101516040518463ffffffff1660e01b8152600401610a62939291906112a5565b6020604051808303816000875af1158015610a81573d6000803e3d6000fd5b505050506040513d601f19601f82011682018060405250810190610aa59190611314565b5081600081518110610aba57610ab9611551565b5b6020026020010151600386604051610ad2919061128e565b90815260200160405180910390208190555081600081518110610af857610af7611551565b5b6020026020010151600386604051610b10919061128e565b90815260200160405180910390205414610b5f576040517f08c379a0000000000000000000000000000000000000000000000000000000008152600401610b5690611aaa565b60405180910390fd5b7fb53b02d72051b8c919bb9d2a3dc55ddace5785b3e6ac9c656452aaea87749c7783600081518110610b9457610b93611551565b5b602002602001015185604051610bab929190611aeb565b60405180910390a15050505050565b828054828255906000526020600020908101928215610c33579160200282015b82811115610c325782518260006101000a81548173ffffffffffffffffffffffffffffffffffffffff021916908373ffffffffffffffffffffffffffffffffffffffff16021790555091602001919060010190610bda565b5b509050610c409190610c44565b5090565b5b80821115610c5d576000816000905550600101610c45565b5090565b6000604051905090565b600080fd5b600080fd5b600080fd5b600080fd5b6000601f19601f8301169050919050565b7f4e487b7100000000000000000000000000000000000000000000000000000000600052604160045260246000fd5b610cc882610c7f565b810181811067ffffffffffffffff82111715610ce757610ce6610c90565b5b80604052505050565b6000610cfa610c61565b9050610d068282610cbf565b919050565b600067ffffffffffffffff821115610d2657610d25610c90565b5b610d2f82610c7f565b9050602081019050919050565b82818337600083830152505050565b6000610d5e610d5984610d0b565b610cf0565b905082815260208101848484011115610d7a57610d79610c7a565b5b610d85848285610d3c565b509392505050565b600082601f830112610da257610da1610c75565b5b8135610db2848260208601610d4b565b91505092915050565b600060208284031215610dd157610dd0610c6b565b5b600082013567ffffffffffffffff811115610def57610dee610c70565b5b610dfb84828501610d8d565b91505092915050565b600081519050919050565b600082825260208201905092915050565b60005b83811015610e3e578082015181840152602081019050610e23565b60008484015250505050565b6000610e5582610e04565b610e5f8185610e0f565b9350610e6f818560208601610e20565b610e7881610c7f565b840191505092915050565b6000819050919050565b610e9681610e83565b82525050565b60006040820190508181036000830152610eb68185610e4a565b9050610ec56020830184610e8d565b9392505050565b600073ffffffffffffffffffffffffffffffffffffffff82169050919050565b6000610ef782610ecc565b9050919050565b610f0781610eec565b82525050565b6000602082019050610f226000830184610efe565b92915050565b6000819050919050565b6000610f4d610f48610f4384610ecc565b610f28565b610ecc565b9050919050565b6000610f5f82610f32565b9050919050565b6000610f7182610f54565b9050919050565b610f8181610f66565b82525050565b6000602082019050610f9c6000830184610f78565b92915050565b610fab81610e83565b8114610fb657600080fd5b50565b600081359050610fc881610fa2565b92915050565b600067ffffffffffffffff821115610fe957610fe8610c90565b5b602082029050602081019050919050565b600080fd5b600061100a82610ecc565b9050919050565b61101a81610fff565b811461102557600080fd5b50565b60008135905061103781611011565b92915050565b600061105061104b84610fce565b610cf0565b9050808382526020820190506020840283018581111561107357611072610ffa565b5b835b8181101561109c57806110888882611028565b845260208401935050602081019050611075565b5050509392505050565b600082601f8301126110bb576110ba610c75565b5b81356110cb84826020860161103d565b91505092915050565b600067ffffffffffffffff8211156110ef576110ee610c90565b5b602082029050602081019050919050565b600061111361110e846110d4565b610cf0565b9050808382526020820190506020840283018581111561113657611135610ffa565b5b835b8181101561115f578061114b8882610fb9565b845260208401935050602081019050611138565b5050509392505050565b600082601f83011261117e5761117d610c75565b5b813561118e848260208601611100565b91505092915050565b600080600080608085870312156111b1576111b0610c6b565b5b600085013567ffffffffffffffff8111156111cf576111ce610c70565b5b6111db87828801610d8d565b94505060206111ec87828801610fb9565b935050604085013567ffffffffffffffff81111561120d5761120c610c70565b5b611219878288016110a6565b925050606085013567ffffffffffffffff81111561123a57611239610c70565b5b61124687828801611169565b91505092959194509250565b600081905092915050565b600061126882610e04565b6112728185611252565b9350611282818560208601610e20565b80840191505092915050565b600061129a828461125d565b915081905092915050565b60006060820190506112ba6000830186610efe565b6112c76020830185610efe565b6112d46040830184610e8d565b949350505050565b60008115159050919050565b6112f1816112dc565b81146112fc57600080fd5b50565b60008151905061130e816112e8565b92915050565b60006020828403121561132a57611329610c6b565b5b6000611338848285016112ff565b91505092915050565b7f4e487b7100000000000000000000000000000000000000000000000000000000600052601160045260246000fd5b600061137b82610e83565b915061138683610e83565b925082820190508082111561139e5761139d611341565b5b92915050565b7f46756e6473206e6f742072656365697665642066726f6d206465706f7369746f60008201527f7200000000000000000000000000000000000000000000000000000000000000602082015250565b6000611400602183610e0f565b915061140b826113a4565b604082019050919050565b6000602082019050818103600083015261142f816113f3565b9050919050565b600060408201905061144b6000830185610efe565b6114586020830184610e8d565b9392505050565b7f4e487b7100000000000000000000000000000000000000000000000000000000600052602260045260246000fd5b600060028204905060018216806114a657607f821691505b6020821081036114b9576114b861145f565b5b50919050565b7f46756e647320617265206e6f7420726561647920746f20626520636f6c6c656360008201527f7465642079657400000000000000000000000000000000000000000000000000602082015250565b600061151b602783610e0f565b9150611526826114bf565b604082019050919050565b6000602082019050818103600083015261154a8161150e565b9050919050565b7f4e487b7100000000000000000000000000000000000000000000000000000000600052603260045260246000fd5b7f43616c6c6572206973206e6f742073706c697420696e69746961746f72000000600082015250565b60006115b6601d83610e0f565b91506115c182611580565b602082019050919050565b600060208201905081810360008301526115e5816115a9565b9050919050565b7f496e69746961746f7220616d6f756e74206d757374206265206e6f6e2d6e656760008201527f6174697665000000000000000000000000000000000000000000000000000000602082015250565b6000611648602583610e0f565b9150611653826115ec565b604082019050919050565b600060208201905081810360008301526116778161163b565b9050919050565b7f4465706f7369746f7220616d6f756e74206d757374206265206e6f6e2d6e656760008201527f6174697665000000000000000000000000000000000000000000000000000000602082015250565b60006116da602583610e0f565b91506116e58261167e565b604082019050919050565b60006020820190508181036000830152611709816116cd565b9050919050565b600061171b82610e83565b91507fffffffffffffffffffffffffffffffffffffffffffffffffffffffffffffffff820361174d5761174c611341565b5b600182019050919050565b7f53706c697420646f6573206e6f7420657175616c20746f74616c20616d6f756e60008201527f74206f7765642e00000000000000000000000000000000000000000000000000602082015250565b60006117b4602783610e0f565b91506117bf82611758565b604082019050919050565b600060208201905081810360008301526117e3816117a7565b9050919050565b60008190508160005260206000209050919050565b60006020601f8301049050919050565b600082821b905092915050565b60006008830261184c7fffffffffffffffffffffffffffffffffffffffffffffffffffffffffffffffff8261180f565b611856868361180f565b95508019841693508086168417925050509392505050565b600061188961188461187f84610e83565b610f28565b610e83565b9050919050565b6000819050919050565b6118a38361186e565b6118b76118af82611890565b84845461181c565b825550505050565b600090565b6118cc6118bf565b6118d781848461189a565b505050565b5b818110156118fb576118f06000826118c4565b6001810190506118dd565b5050565b601f82111561194057611911816117ea565b61191a846117ff565b81016020851015611929578190505b61193d611935856117ff565b8301826118dc565b50505b505050565b600082821c905092915050565b600061196360001984600802611945565b1980831691505092915050565b600061197c8383611952565b9150826002028217905092915050565b61199582610e04565b67ffffffffffffffff8111156119ae576119ad610c90565b5b6119b8825461148e565b6119c38282856118ff565b600060209050601f8311600181146119f657600084156119e4578287015190505b6119ee8582611970565b865550611a56565b601f198416611a04866117ea565b60005b82811015611a2c57848901518255600182019150602085019450602081019050611a07565b86831015611a495784890151611a45601f891682611952565b8355505b6001600288020188555050505b505050505050565b7f496e69746961746f72732073706c6974206e6f74207472616e73666572726564600082015250565b6000611a94602083610e0f565b9150611a9f82611a5e565b602082019050919050565b60006020820190508181036000830152611ac381611a87565b9050919050565b6000611ad582610f54565b9050919050565b611ae581611aca565b82525050565b6000604082019050611b006000830185611adc565b611b0d6020830184610e8d565b939250505056fea2646970667358221220eedb031e048afc5949fda839535264b56616afc5852f72e60dcaec6ce3b41c1264736f6c63430008110033",
  "linkReferences": {},
  "deployedLinkReferences": {}
}